:020000040800F2
:1000000000000220C1180008990400089B040008A1
:100010009D0400089F040008A104000800000000DF
:10002000000000000000000000000000A304000821
:10003000A504000800000000A7040008A9040008A7
:1000400011190008111900081119000811190008E8
:1000500011190008111900081119000811190008D8
:1000600011190008111900081119000811190008C8
:1000700011190008111900081119000811190008B8
:1000800011190008111900081119000811190008A8
:100090001119000811190008111900081119000898
:1000A0001119000811190008111900081119000888
:1000B0001119000811190008111900081119000878
:1000C0001119000811190008111900081119000868
:1000D0001119000811190008111900081119000858
:1000E0001119000811190008111900081119000848
:1000F0001119000811190008111900081119000838
:100100001119000811190008111900081119000827
:100110001119000811190008111900081119000817
:100120001119000811190008111900081119000807
:1001300011190008111900081119000811190008F7
:1001400011190008111900081119000811190008E7
:1001500011190008111900081119000811190008D7
:1001600011190008111900081119000811190008C7
:1001700011190008111900081119000800000000E9
:08018000111900081119000813
:1001880053B94AB9002908BF00281CBF4FF0FF31F6
:100198004FF0FF3000F00CB8ADF1080C6DE904CE5B
:1001A80001F0E0FBDDF804E0DDE9022304B070476C
:1001B800704700BF10B5054C237833B9044B13B111
:1001C8000448AFF300800123237010BD48000020CD
:1001D80000000000281C000808B5034B1BB10349A8
:1001E8000348AFF3008008BD000000004C00002069
:1001F800281C000872B6FEE700B595B03022002131
:1002080008A801F082FB0023039304930593069347
:10021800079301931F4A116C41F080511164126CCD
:1002280002F080520192019A02931B4A116841F42C
:1002380080411160126802F480420292029A0222FE
:10024800089201210B9110210C910E920F93082313
:100258001093A823119312920423139308A800F073
:1002680073FC98B90F230393022304930023059387
:100278004FF4A05306934FF480530793052103A826
:1002880000F0CCFE20B915B05DF804FBFFF7B2FF13
:10029800FFF7B0FF003802400070004030B583B06F
:1002A80001F008F9FFF7A8FF00F06CF800F09AF8E1
:1002B80001F09EFA0A21084601F03AFA294C012574
:1002C800009594E80E00284801F01AFA14210A2033
:1002D80001F02EFA009594E80E00244801F010FA77
:1002E8001E210A2001F024FA009594E80E00204807
:1002F80001F006FA28210A2001F01AFA1D4C00958F
:1003080094E80E001C4801F0FBF932210A2001F0A4
:100318000FFA009594E80E00184801F0F1F901F081
:100328004DF941F2883001F0F1F801F00DF917E0CC
:10033800002001F035F90125019540230093802321
:100348000F4A52F824200021084601F0F7F901F07D
:1003580035F9284601F0DAF82C44E4B20E2CE7D936
:100368000024FBE7AC580008401C0008501C00089B
:10037800601C0008B8580008701C0008841C00089D
:100388000000002084B000220092154B196B41F048
:1003980004011963196B01F004010091009901929D
:1003A800196B41F080011963196B01F0800101910B
:1003B80001990292196B41F001011963196B01F05F
:1003C80001010291029903921A6B42F002021A6328
:1003D8001B6B03F002030393039B04B0704700BF39
:1003E8000038024008B50B480B4B03600B4B4360C9
:1003F80000238360C3604FF48042026143618361DC
:10040800C361036200F010FA00B908BDFFF7F2FEFD
:10041800FBE700BF6400002000540040801A06007B
:1004280030B589B00023039304930593069307938B
:100438000268144B9A4201D009B030BD00250195DD
:10044800114C236B43F002032363236B03F0020375
:100458000193019BC0230393122304930323069360
:100468000423079303A9094800F09EFE0295236C14
:1004780043F400132364236C03F400130293029BD8
:10048800DAE700BF00540040003802400004024090
:10049800FEE7FEE7FEE7FEE7FEE7704770477047B6
:1004A80008B501F021F808BD82B0002100910B4B7E
:1004B8005A6C42F480425A645A6C02F480420092A8
:1004C800009A01911A6C42F080521A641B6C03F076
:1004D80080530193019B02B0704700BF003802406F
:1004E80003685A6912F4806F01D1002070476FF4D5
:1004F80080625A6100230363202280F83D2080F83F
:100508003E30026C42F00402026480F83C30012064
:1005180070472DE9F04106460C46174698463BE0E1
:1005280000F0EEFF069BC01A404502D8B8F1000F54
:1005380032D1012D18D033689B6924EA03039BB29A
:10054800B3FA83F35B099F4226D100233363202249
:1005580086F83D2086F83E30326C42F02002326444
:1005680086F83C30012027E033685B6924EA0303FE
:100578009BB2B3FA83F35B09E5E733685B6924EA66
:10058800030C1FFA8CFCBCFA8CFC4FEA5C1C674518
:1005980011D1B8F1FF3FC3D1C4F30745012DECD009
:1005A80033689B6924EA030C1FFA8CFCBCFA8CFCA8
:1005B8004FEA5C1CEBE70020BDE8F0812DE9F84329
:1005C80005460E469046994653E01A6842F4007272
:1005D8001A602B686FF480625A6100232B63202213
:1005E80085F83D2085F83E302A6C42F004022A64E2
:1005F80085F83C3001204AE000F082FFA0EB0900BA
:10060800404502D8B8F1000F33D1012F17D02B681D
:100618009B6926EA03039BB2003B18BF012343B33F
:1006280000232B63202285F83D2085F83E302A6C74
:1006380042F020022A6485F83C30012027E02B682C
:100648005B6926EA03039BB2003B18BF0123E6E778
:100658002B689C6926EA0404A4B2003C18BF012454
:10066800A4B12B685A6912F4806FAED1B8F1FF3F7C
:10067800C2D1C6F30747012FEAD12B685C6926EA85
:100688000404A4B2003C18BF0124E9E70020BDE837
:10069800F88370B504460D46164623685B6913F067
:1006A800800F21D12046FFF71BFFF8B9B5F1FF3FB6
:1006B800F3D000F025FF801BA84201D8002DECD113
:1006C80023685B6913F0800FE7D10023236320229E
:1006D80084F83D2084F83E30226C42F020022264E7
:1006E80084F83C30012000E0002070BD0120FCE7C8
:1006F8002DE9F04385B004460D4691461F46DDF8C6
:1007080030800D9E0368196841F480711960009665
:10071800434600224FF00111FFF7FBFE60B9236842
:1007280005F0FE051D613346424626492046FFF77F
:1007380045FF68B1012008E023681B6813F4807F37
:1007480002D04FF400732364032005B0BDE8F083A2
:100758000023039323685A6903929B690393039BBD
:10076800324641462046FFF794FF30B9012F0FD19A
:1007780023685FFA89F61E61E7E7236C042B01D032
:100788000120E2E72268136843F400731360F7E777
:1007980023684FEA19221A61324641462046FFF77C
:1007A80078FF20B923685FFA89F61E61CDE7236CCC
:1007B800042B01D00120C8E72268136843F40073B2
:1007C8001360F7E70200010070B504460D461646AF
:1007D80023685B6913F0040F21D12046FFF780FEE0
:1007E800F8B9B5F1FF3FF3D000F08AFE801BA842AC
:1007F80001D8002DECD123685B6913F0040FE7D111
:1008080000232363202284F83D2084F83E30226CA4
:1008180042F02002226484F83C30012000E00020ED
:1008280070BD0120FCE70000002800F0CC8070B506
:10083800044690F83D30002B77D0242384F83D30CF
:100848002268136823F0010313602268136843F4D5
:10085800004313602268136823F40043136000F018
:1008680093FC62685A4B9A4264D85A4B98428CBFA0
:1008780000230123002B40F0A8805749A1FB003139
:100888008B0C25686A6822F03F0242EA91426A604E
:1008980021680A6A22F03F0266684D4DAE424FD881
:1008A800013313430B622168CA6922F44F4222F0D4
:1008B800FF026568464B9D424CD8431E6D00B3FB52
:1008C800F5F3013340F6FC70034278D0C3F30B0311
:1008D8001A43CA6121680B6823F0C003E269206AE1
:1008E800024313430B6021688B6823F4034323F00E
:1008F800FF032269E068024313438B602168CB68D9
:1009080023F0FF036269A06902431343CB602268A6
:10091800136843F00103136000202064202384F847
:100928003D30206384F83E0070BD80F83C30FFF70E
:1009380077FD82E7294B98428CBF0023012399E772
:100948004FF4967505FB03F3254DA5FB03539B094F
:100958000133A6E7A668BEB9431E05EB450CB3FBF9
:10096800FCF30133C3F30B03B3FA83F35B0943BB13
:10097800C6B9431E05EB4505B3FBF5F30133C3F3D5
:100988000B0343F40043A3E7431E05EB850C0CEB74
:100998008C0CB3FBFCF30133C3F30B03B3FA83F3FF
:1009A8005B09E4E7431E05EB850505EB8505B3FB0D
:1009B800F5F30133C3F30B0343F4404388E70423FF
:1009C80086E7012384E7012070470120ACE700BFD8
:1009D800A08601007F841E0083DE1B43FF083D00C4
:1009E800D34D62102DE9F04383B004460F4690467C
:1009F80099460C9E00F084FD054694F83D00C0B26F
:100A0800202803D0022003B0BDE8F0830095192305
:100A180001224B492046FFF77CFD002840F08980E1
:100A280094F83C30012B00F08680012384F83C3098
:100A380023681A6812F0010F03D11A6842F0010204
:100A48001A602268136823F400631360212384F872
:100A58003D30402384F83E30002323640A9B6362C0
:100A6800BDF82C306385638D2385364BE362019591
:100A780000964B46424639462046FFF739FE002885
:100A88005BD1238D002B35D02A4631462046FFF70F
:100A980000FE20BB626A236812781A61626A531CDE
:100AA8006362218D013989B22185638D9BB2013B37
:100AB8009BB263852368586910F0040FE1D00029C0
:100AC800DFD052781A61636A01336362238D013B78
:100AD8002385638D9BB2013B9BB26385D1E7236C71
:100AE800042B01D001208EE72268136843F40073B9
:100AF8001360F7E72A4631462046FFF765FE50B1F6
:100B0800236C042B01D001207DE72268136843F48D
:100B180000731360F7E72268136843F400731360E7
:100B2800202384F83D30002384F83E3084F83C309C
:100B380069E7022067E7022065E7012063E700BF55
:100B4800020010000000FFFF002800F0E08170B5EF
:100B580082B00446036813F0010F3BD09F4B9B689B
:100B680003F00C03042B2CD09C4B9B6803F00C0364
:100B7800082B21D06368B3F5803F4FD0B3F5A02F81
:100B880052D0964B1A6822F480321A601A6822F4FE
:100B980080221A606368002B50D000F0B1FC054633
:100BA8008E4B1B6813F4003F14D100F0A9FC401BC6
:100BB8006428F5D90320B1E1884B5B6813F4800FF2
:100BC800D8D0864B1B6813F4003F03D06368002B12
:100BD80000F09F81236813F0020F54D07F4B9B686D
:100BE80013F00C0F3ED07D4B9B6803F00C03082BD1
:100BF80033D0E368002B68D0794B01221A6000F0EB
:100C08007FFC0546754B1B6813F0020F54D100F0AA
:100C180077FC401B0228F5D903207FE16F4A13684F
:100C280043F480331360B5E76C4B1A6842F48022B2
:100C38001A601A6842F480321A60ABE700F060FC70
:100C48000546664B1B6813F4003FC3D000F058FC00
:100C5800401B6428F5D9032060E1604B5B6813F4FE
:100C6800800FC6D15D4B1B6813F0020F03D0E368F9
:100C7800012B40F05081594A136823F0F803216989
:100C880043EAC1031360236813F0080F42D0636975
:100C98006BB3534B0122C3F8802E00F031FC05469C
:100CA8004E4B5B6F13F0020F34D100F029FC401B50
:100CB8000228F5D9032031E1484A136823F0F803E4
:100CC800216943EAC1031360DDE7454B00221A603E
:100CD80000F016FC0546414B1B6813F0020FD2D0FA
:100CE80000F00EFC401B0228F5D9032016E13C4B0E
:100CF8000022C3F8802E00F003FC0546374B5B6FDB
:100D080013F0020F06D000F0FBFB401B0228F5D9B8
:100D1800032003E1236813F0040F77D02F4B1B6CDB
:100D280013F0805F33D1002301932C4B1A6C42F0EF
:100D380080521A641B6C03F080530193019B0125B8
:100D4800284B1B6813F4807F23D0A368012B34D071
:100D5800052B38D0214B1A6F22F001021A671A6F3F
:100D680022F004021A67A368002B3DD000F0C8FBEC
:100D780006461A4B1B6F13F0020F46D100F0C0FB5A
:100D8800801B41F288339842F3D90320C6E000253E
:100D9800D6E7144A136843F48073136000F0B0FB7D
:100DA8000646104B1B6813F4807FCED100F0A8FBD9
:100DB800801B0228F5D90320B0E0084A136F43F0DE
:100DC80001031367CFE7054B1A6F42F004021A6755
:100DD8001A6F42F001021A67C5E700BF00380240E7
:100DE800000047420070004000F08AFB0646524B64
:100DF8001B6F13F0020F08D000F082FB801B41F23A
:100E080088339842F3D9032088E0EDB9A369002B11
:100E180000F08380484A926802F00C02082A51D0F8
:100E2800022B17D0454B00221A6600F069FB0446D6
:100E3800414B1B6813F0007F42D000F061FB001BA0
:100E48000228F5D9032069E03B4A136C23F080534C
:100E58001364DBE7394B00221A6600F051FB0546A4
:100E6800354B1B6813F0007F06D000F049FB401B90
:100E78000228F5D9032051E0E369226A1343626A24
:100E880043EA8213A26A5208013A43EA0243E26A39
:100E980043EA0263284A5360284B01221A6600F08D
:100EA8002FFB0446244B1B6813F0007F06D100F08B
:100EB80027FB001B0228F5D903202FE000202DE096
:100EC80000202BE0012B2BD01B4B5B6803F4800127
:100ED800E269914226D103F03F02216A8A4223D176
:100EE800616A47F6C0721A40B2EB811F1ED103F443
:100EF8004031A26A5208013AB1EB024F18D103F00F
:100F08007063E26AB3EB026F14D1002006E001209F
:100F18007047012002E0012000E0002002B070BD0F
:100F28000120FBE70120F9E70120F7E70120F5E7B9
:100F38000120F3E70120F1E70038024000004742B2
:100F480008B5334B9B6803F00C03042B5BD0082BCC
:100F58005BD12F4B5A6802F03F025B6813F4800F95
:100F68002CD02B4B5868C0F388104FEA401CBCEBC0
:100F7800000C6EEB0E0E4FEA8E1343EA9C634FEAA9
:100F88008C11B1EB0C0163EB0E03DB0043EA5173E8
:100F9800C90011EB000C43F10003590200234FEA8A
:100FA8004C2041EADC51FFF7EBF8194B5B68C3F3BF
:100FB800014301335B00B0FBF3F008BD144B5868E4
:100FC800C0F388104FEA401CBCEB000C6EEB0E0E11
:100FD8004FEA8E1343EA9C634FEA8C11B1EB0C0184
:100FE80063EB0E03DB0043EA5173C90011EB000CFD
:100FF80043F10003990200234FEA8C2041EA9C51F7
:10100800FFF7BEF8D1E70348D7E70348D5E700BFA5
:101018000038024000127A000024F400002800F092
:101028009B8070B50D4604464F4B1B6803F00703C1
:101038008B4208D2CBB24C4A1370136803F00703F3
:101048008B4240F08B80236813F0020F17D013F007
:10105800040F04D0454A936843F4E053936023682F
:1010680013F0080F04D0414A936843F46043936037
:101078003E4A936823F0F003A1680B43936023680A
:1010880013F0010F32D06368012B21D09A1E012A78
:1010980025D9364A126812F0020F61D033498A689E
:1010A80022F0030213438B6000F02AFA06462F4B06
:1010B8009B6803F00C036268B3EB820F16D000F054
:1010C8001FFA801B41F288339842F0D9032042E08E
:1010D800264A126812F4003FE0D101203BE0234A7F
:1010E800126812F0007FD9D1012034E01E4B1B6832
:1010F80003F00703AB4207D9EAB21B4B1A701B680F
:1011080003F00703AB422DD1236813F0040F06D078
:10111800164A936823F4E053E1680B43936023680D
:1011280013F0080F07D0114A936823F4604321692C
:1011380043EAC1039360FFF703FF0C4B9B68C3F3BB
:1011480003130B4AD35CD8400A4B18600A4B186843
:1011580000F08AF9002070BD012070470120FAE7ED
:101168000120F8E70120F6E7003C02400038024081
:101178009C5800084400002040000020014B1868DB
:10118800704700BF4400002008B5FFF7F7FF044B85
:101198009B68C3F38223034AD35CD84008BD00BFD1
:1011A800003802409458000800230F2B00F2E98011
:1011B80070B582B065E085684FEA430E032404FAEF
:1011C8000EF425EA0405CC6804FA0EF42C43846076
:1011D800446824EA02044A68C2F300129A4022438F
:1011E80042605CE0DC08083450F8242003F007056E
:1011F800AD004FF00F0E0EFA05FE22EA0E0E0A6938
:10120800AA4042EA0E0240F824205CE0072200E0EF
:10121800002202FA0EF22A4302345A4D45F82420DD
:10122800594A94686FEA0C0224EA0C054E6816F4D1
:10123800801F01D04CEA0405534CA560E46802EA1B
:1012480004054E6816F4001F01D04CEA04054E4C04
:10125800E560646802EA04054E6816F4003F01D0B0
:101268004CEA0405484C6560246822404D6815F432
:10127800803F01D04CEA0402434C226001330F2B1B
:101288007DD801229A400C6804EA020C32EA040470
:10129800F4D14C6804F00304013C012C8BD94A6852
:1012A80002F00302032A09D0C4685D000322AA40A1
:1012B80024EA02048A68AA402243C2604A6802F00B
:1012C8000302022A8ED004684FEA430E032202FA70
:1012D8000EF224EA02044A6802F0030202FA0EF24D
:1012E800224302604A6812F4403FC7D000220192AC
:1012F800264A546C44F480445464526C02F480428C
:101308000192019A9C08A51C1E4A52F8255003F028
:10131800030E4FEA8E0E0F2202FA0EF225EA02059C
:101328001B4A90423FF474AF02F5806290421AD093
:1013380002F58062904218D002F58062904216D081
:1013480002F58062904214D002F58062904212D079
:1013580002F58062904210D002F5806290423FF41C
:1013680055AF082255E7012253E7022251E703222D
:101378004FE704224DE705224BE7062249E702B072
:1013880070BD704700380140003C01400038024001
:1013980000000240002808DB0901C9B200F16040E2
:1013A80000F5614080F80013704700F00F00090154
:1013B800C9B2014B1954704714ED00E000B500F0B4
:1013C8000700C0F1070CBCF1040F28BF4FF0040C54
:1013D800031D062B0FD9C31E4FF0FF3E0EFA0CF06B
:1013E80021EA000199400EFA03FE22EA0E0241EAC0
:1013F80002005DF804FB0023EEE70000074AD3680B
:1014080023F4E0631B041B0C000200F4E0600343B8
:1014180043F0BF6343F40033D360704700ED00E04E
:1014280010B50446054BD868C0F30220FFF7C6FF85
:1014380001462046FFF7AEFF10BD00BF00ED00E0FB
:101448000138B0F1807F0BD24FF0E0235861054A94
:10145800F02182F823100020986107221A61704752
:101468000120704700ED00E010B504460E4B1A78D5
:101478004FF47A73B3FBF2F30C4A1068B0FBF3F045
:10148800FFF7DEFF68B90F2C01D901200AE000221E
:1014980021464FF0FF30FFF7C3FF054B1C600020CB
:1014A80000E0012010BD00BF3C00002044000020E7
:1014B8004000002008B50B4B1A6842F400721A600D
:1014C8001A6842F480621A601A6842F480721A60DC
:1014D8000320FFF793FF0F20FFF7C6FFFEF7E4FF97
:1014E800002008BD003C0240034A1168034B1B78EA
:1014F8000B441360704700BFB80000203C00002078
:10150800014B1868704700BFB800002038B5044682
:10151800FFF7F6FF0546B4F1FF3F02D0044B1B78F6
:101528001C44FFF7EDFF401BA042FAD338BD00BFB3
:101538003C000020034AD2F8883043F47003C2F814
:101548008830704700ED00E07047000000B587B0B4
:101558008DF817004FF0FF330293012301930DF12B
:1015680017020092002278210248FFF73BFA07B0E1
:101578005DF804FB6400002000B585B04FF0FF3330
:10158800029389B2019100900123402278210348F7
:10159800FFF728FA05B05DF804FB00BF64000020DF
:1015A80008B530B900214FF48062034800F0ADF966
:1015B80008BDFF21F7E700BFC400002010B50024D4
:1015C80012E0A4F15000C0B2FFF7C0FF0020FFF7FF
:1015D800BDFF1020FFF7BAFF8021054800EBC410BB
:1015E800FFF7CAFF0134E4B2072CEAD910BD00BFE7
:1015F800C400002010F0800F1FD13F291DD810B45F
:10160800012A0FD0CB0800EBC3100C4C225C01F070
:10161800070101238B40DB435BB2134023545DF881
:10162800044B7047CB0800EBC310044C235C01F05B
:1016380007018A4013432354F1E77047C400002090
:101648002DE9F04784B0814604A800E90E009DF812
:101658003080A9F12003DBB25E2B46D8274B1B88CC
:101668009DF804603344802B43DC244B5B889DF851
:1016780005A05344402B3EDC00251FE01F4B188873
:10168800598829442044B8FA88F25209C9B2C0B22C
:10169800FFF7B0FF0134A6420FD907FA04F313F499
:1016A800004FEBD0154B18885988294420444246EE
:1016B800C9B2C0B2FFF79EFFECE70135AA4508D9C9
:1016C800A9F1200303FB0A53029A32F8137000248D
:1016D800E1E70A4B1A88039B13B14B4413F8206CBB
:1016E8009319064A1380484600E0002004B0BDE87C
:1016F800F0870020FAE70020F8E700BFBC000020D0
:1017080030B587B0044606A800E90E009DF82850B9
:1017180000E00134207848B1009506AB13E90E00CB
:10172800FFF78EFF034620788342F2D007B030BD22
:10173800014B188059807047BC0000202DE9F04FFC
:1017480083B091461E469DF830209DF8343010F045
:10175800800F31D182468B4606F107084FEAD80838
:101768003F2929D800273D46019200931FE0E3084E
:1017780008FB073319F8035015F0800F09D101341D
:10178800E4B2B4420DD214F0070FF0D06D00EDB200
:10179800F2E704EB0A00009A5946C0B2FFF72AFFA5
:1017A800EDE70137FFB20BF101015FFA81FB019B05
:1017B8009F4201D20024E4E703B0BDE8F08F10B5E2
:1017C80004468120FFF7C2FE2046FFF7BFFE10BD8A
:1017D80008B530B1054B01225A71AF20FFF7B6FEAC
:1017E80008BD024B00225A71AE20F7E7BC0000206A
:1017F80008B56420FFF78AFE0020FFF7E9FF2020E4
:10180800FFF7A4FE0020FFF7A1FEB020FFF79EFE21
:10181800C820FFF79BFE0020FFF798FE1020FFF777
:1018280095FE4020FFF792FEFF20FFF7C8FFA1209A
:10183800FFF78CFEA620FFF789FEA820FFF786FE9B
:101848003F20FFF783FEA420FFF780FED320FFF799
:101858007DFE0020FFF77AFED520FFF777FEF02007
:10186800FFF774FED920FFF771FE2220FFF76EFE06
:10187800DA20FFF76BFE1220FFF768FEDB20FFF788
:1018880065FE2020FFF762FE8D20FFF75FFE142023
:10189800FFF75CFE0120FFF79BFF0020FFF780FEAB
:1018A800FFF78CFE034B00221A805A8001221A711E
:1018B80008BD00BFBC000020DFF834D0FFF73AFEB7
:1018C8000C480D490D4A002302E0D458C450043393
:1018D800C4188C42F9D30A4A0A4C002301E0136069
:1018E8000432A242FBD300F019F8FEF7D7FC704788
:1018F8000000022000000020480000203066000898
:1019080048000020C4040020FEE702440346934236
:1019180000D1704703F8011BF9E7000070B50D4DC1
:101928000D4C641BA4100026A64209D10B4D0C4C8B
:1019380000F076F9641BA4100026A64205D170BDFC
:1019480055F8043B98470136EEE755F8043B9847AD
:101958000136F2E7286600082866000828660008AD
:101968002C6600082DE9F047089D0E4604460F46F0
:10197800002B4AD194468C45B2FA82F260D942B122
:10198800C2F12003974020FA03F30CFA02FC1F432C
:1019980094404FEA1C4E1FFA8CF6B7FBFEF1230C5D
:1019A8000EFB117743EA074301FB06F098420AD978
:1019B8001CEB030301F1FF3780F01581984240F2D8
:1019C8001281023963441B1AA4B2B3FBFEF00EFB6A
:1019D800103344EA034400FB06F6A6420AD91CEB7E
:1019E800040400F1FF3380F00081A64240F2FD803C
:1019F8006444023840EA0140A41B00211DB1D440D0
:101A08000023C5E90043BDE8F0878B4205D90DB135
:101A1800C5E9000100210846F5E7B3FA83F100297A
:101A280046D1B34202D3824200F2F580841A66EBB3
:101A3800030201201746002DE5D0C5E90047E2E77B
:101A4800002A40F09380A1EB0C034FEA1C471FFAD1
:101A58008CFE0121B3FBF7F607FB1630230C43EA93
:101A680000430EFB06F0984208D91CEB030306F16D
:101A7800FF3802D2984200F2D08046461B1AA4B220
:101A8800B3FBF7F007FB103344EA03440EFB00FEF8
:101A9800A64508D91CEB040400F1FF3302D2A64581
:101AA80000F2B6801846A4EB0E0440EA0640A5E70B
:101AB800C1F120078B4022FA07FC4CEA030C06FA16
:101AC80001FE20FA07F426FA07F344EA0E0400FAA6
:101AD80001F84FEA1C404FEA1449B3FBF0FE1FFA25
:101AE8008CF600FB1E3349EA03430EFB06F99945C1
:101AF80002FA01F20BD91CEB03030EF1FF3A80F056
:101B08008580994540F28280AEF1020E6344A3EBD2
:101B18000909A4B2B9FBF0F300FB139944EA09449C
:101B280003FB06F6A64208D91CEB040403F1FF30B8
:101B380068D2A64266D9023B644443EA0E40A41B1D
:101B4800A0FB02E6B4427346B14652D34FD05DB112
:101B5800B8EB030264EB090404FA07F722FA01F36D
:101B68001F43CC40C5E9007400214CE7C2F12001B5
:101B780020FA01F30CFA02FC26FA01F196403343ED
:101B88004FEA1C471FFA8CFEB1FBF7F007FB101653
:101B9800190C41EA064100FB0EF68E4204FA02F4E3
:101BA80008D91CEB010100F1FF382DD28E422BD948
:101BB80002386144891B9BB2B1FBF7F607FB16118B
:101BC80043EA014306FB0EF1994208D91CEB0303D3
:101BD80006F1FF3814D2994212D9023E63445B1AC7
:101BE80046EA004136E73946EDE6184602E7F04591
:101BF800ADD2BEEB020366EB0C060138B146A6E790
:101C08004646ECE7034698E74046D3E7D6467EE7E4
:101C18006444023847E708460DE7023E63442DE76F
:101C2800F8B500BFF8BC08BC9E467047F8B500BFC1
:081C3800F8BC08BC9E46704791
:101C400048656C6C6F2067757973000000000000B8
:101C50006D616B6566696C65207465737400000066
:101C6000627920336B622062696C6962696C690019
:101C70007373643133303620302E39362727204FA6
:101C80004C45440053544D33324634303756455456
:101C900036000000FFFFFFFFFFFFFFFFFFFFFFFF1A
:101CA000FFFFFFFFFFFFFFFFC7F8FFFFFFFFFFFF83
:101CB000FFFFFFFFFFFFFFFFC3F8FFFFFFFFFFFF77
:101CC000FFFFFFFFFFFFFFFFC7F8FFFFFFFFFFFF63
:101CD000FFFFFFFFFFFFFFFFFF1FFFFFFFFFFFFFF4
:101CE000FFFFFFFFFFFFFFFFFE1FFFFFFFFFFFFFE5
:101CF000FFFFFFFF7FFFFFFFFE1FFFBFFFFFFFFF95
:101D0000FFFFFFFF0000FFFFF8C0003FFFFFFFFFE6
:101D1000FFFFFFFF7FFCFFFFFFFFFF3FFFFFFFFF16
:101D2000FFFFFFFF7FFE000003FFFFC00000000079
:101D300000FFFFFF7FFF000003FFFFC00000000067
:101D400000FFFFFF7FFFFFFFFFFFF7C00000000065
:101D500000FFFFFF7FFFFFFFFFFFB7000000000055
:101D6000001FFFFF7FFFFFFFFFFFF70000000000E5
:101D7000001FFFFF0000FFFFF80007000000000049
:101D8000001FFFFF00007FFFF000070000020000BF
:101D9000001FFFFF0000000000000700000000001F
:101DA000001FFFFF0000000000000700000000000F
:101DB000001FFFFF000000000000070000000000FF
:101DC000001FFFFF000000000000070000000000EF
:101DD000001FFFFF00000000000007000000007867
:101DE000001FFFFF0000000000000700000000F8D7
:101DF000401FFFFF0000000000000700000000F887
:101E0000001FFFFF000000000000030000000306A9
:101E1000001FE0FF000000000000030000000707B3
:101E2000001FE0FF000000000000030000000700AA
:101E3000001F00FF0000000000000300000007007A
:101E4000E01F00FF0000000000000300000007008A
:101E5000C01F00FF0000000000000300000007009A
:101E60001FF800FF00000000000003000000070052
:101E70001FF800FF00000000000003000000070042
:101E80001FF800FF0000000000000700000007002E
:101E9000000000FF00000000000007000000070035
:101EA000000000FF0000000000000F000000000024
:101EB0000000003F000000000000FF0000021800CA
:101EC0000000001F000000000000FF0000001800DC
:101ED0000000001F00000000001F070000001800A5
:101EE000C000181F00000000001F070000001800BD
:101EF000E000181F00000000001F0700000018008D
:101F0000E0001C1F0000000000E0070000001807B0
:101F1000E018FC1F0000000000E0070000001807A8
:101F2000E018F81F0000000007C3E70000001802D7
:101F30004018081F000000000707FF0000401800BD
:101F40000000001F000000000707FF00000018004D
:101F50000000001F00000000070707000000180035
:101F6000C0C0E01F00000000070707004000180085
:101F7000E0E0E01F00000000070707000000180075
:101F8000E0E0E03F0000000001FC07000000070067
:101F9000FFFFE0FF0000000001FC07000000070059
:101FA000FFFFE0FF0000000000FC07000000004011
:101FB0007FFBC1FF00000000000007C0000000E040
:101FC000000007FF0000000000001FC0000000E04C
:101FD000000007FF000000000000381FFFFFFFFFA8
:101FE000FFFFFFFF000000000000383FFFFFFFFF82
:101FF000FFFFFFFF7FFF000007FFF83FFFFF873F66
:10200000FFFFFFFFFFFF800007FFF81FE0FF03183F
:102010001FE0FFFFFFFF000007FFF81FE0FF0318AE
:102020001FC0FFFFFFFFFFFFFFFFFC3FE0FF0018A7
:102030001FE1FFFFFFFFFFFFFFFFFFFFFFFFF8FFB5
:10204000FFFFFFFFFFFFFFFFFFFFFFFFFFFFF8FFA7
:10205000FFFFFFFFFFFFFFFFFFFFFFFFFFFFF8FF97
:10206000FFFFFFFFFFFFFFFFFFFFFFFFFFFFF8FF87
:10207000FFFFFFFFFFFFFFFFFFFFFFFFFFFFF8FF77
:10208000FFFFFFFFFFFFFFFFFFFFFFFFFFFFFFFF60
:10209000FFFFFFFFFFFFFFFFFFFFFFFFFFFFFFFF50
:1020A000FFFFFFFFFFFFFFFFFFFFFFFF1FFFFFFF20
:1020B000FFFFFFFFFFFFFFFFFFFFFFFF1FFFFFFF10
:1020C000FFFFFFFFFFFFFFFFFFFFFFFF1FFFFFFF00
:1020D000FFFFFFFFFFFFFFFFFFFFFFFF1FFFFFFFF0
:1020E000FFFFFFFFFFFFFFFFFFFFFFFE1FFFFFFFE1
:1020F000FFFFFFFF7FFDFFFFFFFFFFBF3FFFFFFF72
:10210000FFFFFFFF0000FFFFF800003FFFFFFFFFA2
:10211000FFFFFFFF7FFCFFFFFFFFFF3FFFFFFFFF12
:10212000FFFFFFFF7FFE000003FFFFC00000000075
:1021300000FFFFFF7FFF000003FFFFC00000000063
:1021400000FFFFFF7FFFFFFFFFFFF7C00000000061
:1021500000FFFFFF7FFFFFFFFFFFF7000000000011
:10216000001FFFFF7FFFFFFFFFFFF70000000000E1
:10217000001FFFFF0000FFFFF80007000000000045
:10218000001FFFFF00007FFFF000070000020000BB
:10219000001FFFFF0000000000000700000000001B
:1021A000001FFFFF0000000000000700000000000B
:1021B000001FFFFF000000000000070000000000FB
:1021C000001FFFFF000000000000070000000000EB
:1021D000001FFFFF00000000000007000000007863
:1021E000001FFFFF0000000000000700000000F8D3
:1021F000401FFFFF0000000000000700000000F883
:10220000001FFFFF000000000000030000000306A5
:10221000001FE0FF000000000000030000000707AF
:10222000001FE0FF000000000000030000000700A6
:10223000001F00FF00000000000003000000070076
:10224000E01F00FF00000000000003000000070086
:10225000C01F00FF00000000000003000000070096
:102260001FF800FF0000000000000300000007004E
:102270001FF800FF0000000000000300000007003E
:102280001FF800FF0000000000000700000007002A
:10229000000000FF00000000000007000000070031
:1022A000000000FF0000000000000F000000000020
:1022B0000000003F0000000000001F0000021800A6
:1022C0000000001F0000000000003F000000180098
:1022D0000000001F00000000001FFF0000001800A9
:1022E000C000181F00000000001FFF0000001800C1
:1022F000E000181F00000000001FFF000000180091
:10230000E000181F0000000007E0070000001807A9
:10231000E018F81F0000000007E0070000001807A1
:10232000E038F81F0000000007C06F00000018022E
:102330004018481F000000000700FF000040180080
:102340000000001F000000000700FF000000180050
:102350000000001F0000000001FFE700000018005F
:10236000E0C0C01F0000000000FFE70040001800B0
:10237000E0E0E01F0000000000FFE70000001800A0
:10238000E0E0E01F00000000000007000000070080
:10239000FFFFE0FF00000000000007000000070052
:1023A000FFFFE0FF0000000000000700000000C089
:1023B0007FFFC1FF00000000000007C0000000E038
:1023C000000007FF00000000000007C0000000E060
:1023D000000007FF000000000000071FFFFFFFFFD5
:1023E000FFFFFFFF000000000000073FFFFFFFFFAF
:1023F000FFFFFFFF7FFF000007FFFF1FFFFFFFFF43
:10240000FF3FFFFFFFFF800007FFFF07F81FFFFFF1
:1024100007181FFFFFFF000007FFFF07F81FFFFF60
:1024200007181FFFFFFFFFFFFFFFFF07F83FFFFF3A
:10243000071C3FFFFFFFFFFFFFFFFFFFFFFFFFFF47
:10244000FFFFFFFFFFFFFFFFFFFFFFFFFFFFFFFF9C
:10245000FFFFFFFFFFFFFFFFFFFFFFFFFFFFFFFF8C
:10246000FFFFFFFFFFFFFFFFFFFFFFFFFFFFFFFF7C
:10247000FFFFFFFFFFFFFFFFFFFFFFFFFFFFFFFF6C
:10248000FFFFFFFFFFFFFFFFFFFFFFFFFFFFFFFF5C
:10249000FFFFFFFFFFFFFFFFFFFFFFFFFFFFF8FF53
:1024A000FFFFFFFFFFFFFFFFFFFFFFFFFFFFF8FF43
:1024B000FFFFFFFFFFFFFFFFFFFFFFFFFFFFF8FF33
:1024C000FFFFFFFFFFFFFFFFFFFFFFFFFFFFF8FF23
:1024D000FFFFFFFFFFFFFFFFFFFFFFFFFFFFFFFF0C
:1024E000FFFFFFFFFFFFFFFFFFFFFFFFFFFFFFFFFC
:1024F000FFFFFFFFFFFFFFFFFFFFFFE00000000007
:1025000000FFFFFFFFF800001FFFFFC000000000FA
:1025100000FFFFFFFFFDFFFF9FFFFFC00000000067
:1025200000FFFFFF0007FFFFC000070000000000E2
:10253000001FFFFF0007FFFFE00007000000000092
:10254000001FFFFF7FFFFFFFFFFFF70000000000FD
:10255000001FFFFF7FFFFFFFFFFFF70000000000ED
:10256000001FFFFF7FFFFFFFFFFFF70000020000DB
:10257000001FFFFF7FF800001FFFF70000000000B2
:10258000001FFFFF7FF800001FFFF70000000000A2
:10259000001FFFFF00000000000007000000000017
:1025A000001FFFFF0000000000000700000000788F
:1025B000001FFFFF0000000000000700000000F8FF
:1025C000401FFFFF0000000000000700000000F8AF
:1025D000001FFFFF000000000000070000000202D3
:1025E000001FE0FF000000000000070000000707D8
:1025F000001FE0FF000000000000070000000707C8
:10260000001FC0FF000000000000070000000700DE
:10261000C01F00FF000000000000070000000700CE
:10262000C01F00FF0000000000F0030000000700D2
:10263000003C00FF0000000000F80300000007005D
:102640001FF800FF0000000000F803000000070072
:102650001FF800FF00000000030603000000070051
:10266000000000FF00000000070703000000070053
:10267000000000FF00000000070707000000030043
:10268000000000FF000000000707FF000000180026
:102690000000001F000000000707FF0000001800F6
:1026A0000000001F0000000000C00700000018002C
:1026B000C000181F0000000000E007020000180022
:1026C000E000181F0000000000E0070000001800F4
:1026D000E000181F00000000001F070000001803A2
:1026E000E018F81F00000000001F07000000180796
:1026F000E038F81F00000000001F07000000180766
:10270000E018F81F000000000000FF0000001800A3
:102710000000001F000000000000FF000040180043
:102720000000001F000000000000FF000000180073
:102730004040C01F0000000000000700000018001B
:10274000E0C0E01F000000000000070000001800CB
:10275000E0E0E01F000000000000070000000700AC
:10276000FFFFE0FF0000000000000700000007007E
:10277000FFFFE0FF00000000000007000000020073
:10278000FFFFC0FF00000000000007C0000000E0E5
:10279000000007FF00000000000007C0000000E08C
:1027A000000007FF00000000000017C0000000EB61
:1027B000C669C7FF000000000000381FFFFFFFFFD1
:1027C000FFFFFFFF000000000000381FFFFFFFFFBA
:1027D000FFFFFFFF000000000000383FE0FFFFF8B0
:1027E0001FE0FFFF000000000000381FE0FFFFF8BF
:1027F0001FC0FFFF0007FFFFE0003C3FE0FFFFF8C6
:102800001FE0FF3F0007FFFFE0003FFFFFFFFFFF6C
:10281000FFFFFF1F0007FFFFE0003FFFFFFFFFFF7D
:10282000FFFFFF1FFFFFFFFFFFFFFFFFFFFFFFFF98
:10283000FFFFFF1FFFFFFFFFFFFFFFFFFFFFFFFF88
:10284000FFFFFFFFFFFFFFFFFFFFFFFFFFFFFFFF98
:10285000FFFFFFFFFFFFFFFFFFFFFFFFFFFFFFFF88
:10286000FFFFFFFFFFFFFFFFFFFFFFFFFFFFFFFF78
:10287000FFFFFFFFFFFFFFFFFFFFFFFFFFFFFFFF68
:10288000FFFFFFFFFFFFFFFFFFFFFFFFFFFFFFFF58
:10289000FFFFFFFFFFFFFFFFFFFFFFFFFFFFFFFF48
:1028A000F8FFFFFFFFFFFFFFFFFFFFFFFFFFFFFF3F
:1028B000F8FFFFFFFFFFFFFFFFFFFFFFFFFFFFFF2F
:1028C000FFFFFFFFFFFFFFFFFFFFFFFFFFFFFFFF18
:1028D000FFFFFFFFFFFFFFFFFFFFFFFFFFFFFFFF08
:1028E000FFFFFFFFFFFFFFFFFFFFFFFFFFFFFFFFF8
:1028F000FFFFFFFFFFFFFFFFFFFFFFE00000000003
:1029000000FFFFFFFFF800001FFFFFC000000000F6
:1029100000FFFFFFFFFFAFB79FFFFFC000000000F9
:1029200000FFFFFF0003FFFFC000070000000000E2
:10293000001FFFFF0007FFFFC000070000000000AE
:10294000001FFFFF7FFFFFFFFFFFF70000000000F9
:10295000001FFFFF7FFFFFFFFFFFF70000000000E9
:10296000001FFFFF7FFFFFFFFFFFF70000020000D7
:10297000001FFFFF7FF800001FFFF70000000000AE
:10298000001FFFFF7FF800001FFFF700000000009E
:10299000001FFFFF12C0000004000700000000003D
:1029A000001FFFFF0000000000000700000003C040
:1029B000001FFFFF0000000000000700000007E00C
:1029C000401FFFFF0000000000000700000003C0E0
:1029D000001FFFFF000000000000070000001818A3
:1029E000001F07FF0000000000000700000018188B
:1029F000001F07FF0000000000000700000018187B
:102A0000001F07FF0000000007FE07000000180677
:102A1000001807FF0000000007FF0700000018076C
:102A2000001807FF000000000707C300000018009F
:102A3000000007FF000000000707C30000001800A7
:102A4000FFE007FF000000000707C70000001800B4
:102A5000FFC007FF0000000007E0FF0000001800B3
:102A6000000007FF0000000007E0FF000000180062
:102A7000000007FF0000000003E0FF000000180056
:102A8000000003FF0000000000F83F000000E0002D
:102A9000000000FF0000000000F83F000000E00020
:102AA000000000FF00000000001E07000000E00220
:102AB000000040FF00000000001F07020000E003CC
:102AC0000000E0FF00000000001F07000000E0071A
:102AD0000000E0FF000000000007FF000000E01F12
:102AE00000C3E0FF000000000007FF000000E01F3F
:102AF00000E7E0FF000000000007FF000000E01F0B
:102B000000C7C0FF0000000000003F000000E00020
:102B1000000000FF0000000000001F000040E00077
:102B2000000000FF0000000000001F000000E002A5
:102B3000020200FF00000000000007000000E007A4
:102B4000070700FF0000000000000700000060070A
:102B5000070700FF00000000000007000000180742
:102B6000FFFF03FF0000000000000700000018073F
:102B7000FFFF07FF0000000000000700000018032F
:102B8000FFFF07FF0000000000003FC0000007003B
:102B900000001FFF0000000000003FC00000070011
:102BA00000001FFF000000000000FFC00000079FA2
:102BB0007A053FFF000000000001C01FFFFFFFFF7C
:102BC000FFFFFFFF000000000001C01FFFFFFFFF2D
:102BD000FFFFFFFF000000000001C0FFE0FFFFE07B
:102BE000FF07FFFF000000000001C0FFE0FFFFE063
:102BF000FF07FFFF0007FFFFE001E0FFE0FFFFE14D
:102C0000FF07FFFF0007FFFFE001FFFFFFFFFFFFE0
:102C1000FFFFFFFF0007FFFFE001FFFFFFFFFFFFD8
:102C2000FFFFFFFFFFFFFFFFFFFFFFFFFFFFFFFFB4
:102C3000FFFFFFFFFFFFFFFFFFFFFFFFFFFFFFFFA4
:102C4000FFFFFFFFFFFFFFFFFFFFFFFFFFFFFFFF94
:102C5000FFFFFFFFFFFFFFFFFFFFFFFFFFFFFFFF84
:102C6000FFFFFFFFFFFFFFFFFFFFFFFFFFFFFFFF74
:102C7000FFFFFFFFFFFFFFFFFFFFFFFFFFFFFFFF64
:102C8000FFFFFFFFFFFFFFFFFFFFFFFFFFFFFFFF54
:102C9000FFFFFFFFFFFFFFFFFFFFFFFFFFFFFFFF44
:102CA000F8FFFFFFFFFFFFFFFFFFFFFFFFFFFFFF3B
:102CB000F8FFFFFFFFFFFFFFFFFFFFFFFFFFFFFF2B
:102CC000FFFFFFFFFFFFFFFFFFFFFFFFFFFFFFFF14
:102CD000FFFFFFFFFFFFFFFFFFFFFFFFFFFFFFFF04
:102CE000FFFFFFFFFFFFFFFFFFFFFFFFFFFFFFFFF4
:102CF000FFFFFFFFFFFFFFFFFFFFFFE000000000FF
:102D000000FFFFFFFFF800001FFFFFC000000000F2
:102D100000FFFFFFFFFFDFFE9FFFFFC0000000007E
:102D200000FFFFFF0007FFFFC000070000000000DA
:102D3000001FFFFF0007FFFFC000070000000000AA
:102D4000001FFFFF7FFDFFFFFFFFF70000000000F7
:102D5000001FFFFF7FFFFFFFFFFFF70000000000E5
:102D6000001FFFFF7FEFFFFFFFFFF70000020200E1
:102D7000001FFFFF7FF800001FFFF70000000000AA
:102D8000001FFFFF7FF800001FFFF700000000009A
:102D9000001FFFFF0000000000000700000000000F
:102DA000001FFFFF0000000000000700000003C03C
:102DB000001FFFFF0000000000000700000007E008
:102DC000401FFFFF0000000000000700000007C0D8
:102DD000001FFFFF0000000000000700000018189F
:102DE000001F07FF00000000000007000000181887
:102DF000001F07FF00000000000007000000181877
:102E0000001F07FF0000000007FE07000000180673
:102E1000001807FF0000000007FF07000000180768
:102E2000001807FF000000000707C300000018009B
:102E3000000007FF000000000707C30000001800A3
:102E4000FFE007FF000000000707C70000001800B0
:102E5000FFC007FF0000000007E0FF0000001800AF
:102E6000000007FF0000000007E0FF00000018005E
:102E7000000007FF0000000003E0FF000000180052
:102E8000000003FF0000000000F83F000000E00029
:102E9000000000FF0000000000F83F000000E0001C
:102EA000000000FF00000000001E07000000E0021C
:102EB000000040FF00000000001F07020000E003C8
:102EC0000000E0FF00000000001F07000000E0031A
:102ED0000000E0FF000000000007FF000000E01F0E
:102EE00000C3E0FF000000000007FF000000E01F3B
:102EF00000E7E0FF000000000003FF000000E01F0B
:102F000000C3C0FF0000000000003F000000E00020
:102F1000000000FF0000000000001F000040E00073
:102F2000000000FF0000000000001F000000E002A1
:102F3000020200FF00000000000007000000E007A0
:102F4000070700FF00000000000007000000600706
:102F5000070700FF0000000000000700000018073E
:102F6000FFFF03FF0000000000000700000018073B
:102F7000FFFF07FF00000000000017000000180717
:102F8000FFFF07FF0000000000003FC00000070037
:102F900000003FFF0000000000003FC000000700ED
:102FA00000001FFF000000000000FFC0000007AC91
:102FB0003A493FFF000000000001C01FFFFFFFFF74
:102FC000FFFFFFFF000000000001C01FFFFFFFFF29
:102FD000FFFFFFFF000000000001C0FFE0FFFFE077
:102FE000FF07FFFF000000000001C0FFE0FFFFE05F
:102FF000FF07FFFF0007FFFFE001E0FFE0FFFFE149
:10300000FF07FFFF0007FFFFE001FFFFFFFFFFFFDC
:10301000FFFFFFFF0007FFFFE001FFFFFFFFFFFFD4
:10302000FFFFFFFFFFFFFFFFFFFFFFFFFFFFFFFFB0
:10303000FFFFFFFFFFFFFFFFFFFFFFFFFFFFFFFFA0
:10304000FFFFFFFFFFFFFFFFFFFFFFFFFFFFFFFF90
:10305000FFFFFFFFFFFFFFFFFFFFFFFFFFFFFFFF80
:10306000FFFFFFFFFFFFFFFFFFFFFFFFFFFFFFFF70
:10307000FFFFFFFFFFFFFFFFFFFFFFFFFFFFFFFF60
:10308000FFFFFFFFFFFFFFFFFFFFFFFFFFFFFFFF50
:10309000FFFFFFFFFFFFFFFFFFFFFFFFFFFFFFFF40
:1030A000FFFFFFFFFFFFFFFFFFFFFFFFFFFFFFFF30
:1030B000FFFFFFFFFFFFFFFFFFFFFFFFFFFFFFFF20
:1030C000FFFFFFFFFFFFFFFFFFFFFFFFFFFFFFFF10
:1030D000FFFFFFFFFFFFFFFFFFFFFFFFFFFFFFFF00
:1030E000FFFFFFFFFFFFFFFFFFFFFFFFFFFFFFFFF0
:1030F000FFFFFFFF7FFFFFFFFFFFFFFFFFFFFFFF60
:10310000FFFFFFFF0000FFFFF800003FFFFFFFFF92
:10311000FFFFFFFF7FFC7FFFFBFFFE3FFFFFFFFF87
:10312000FFFFFFFF7FFE000003FFFFC00000000065
:1031300000FFFFFF7FFE000003FFFDC00000000056
:1031400000FFFFFF7FFFFFFFFFFFF7C00000000051
:1031500000FFFFFF7FFFFFFFFFFFF7000000000001
:10316000001FFFFF7FFFFFFFFFFFF70000000000D1
:10317000001FFFFF0000FFFFF80007000000000035
:10318000001FFFFF00007FFFF800070000000000A5
:10319000001FFFFF00000000000007000000020009
:1031A000001FFFFF000000000000070000000000FB
:1031B000001FFFFF000000000000070000000000EB
:1031C000001FFFFF000000000000070000000000DB
:1031D000001FFFFF0000000000000700000003C008
:1031E000001FFFFF0000000000000700000007C0F4
:1031F000401FFFFF0000000000000700000003C0A8
:10320000001FFFFF0000000000000300000018186E
:10321000001F07FF00000000000003000000181856
:10322000001F07FF0000000000000300000018005E
:10323000001C07FF0000000000000300000018074A
:10324000001807FF0000000000000300000018063F
:10325000001807FF0000000003FE03000000180034
:10326000FFE007FF0000000007FF03000000180058
:10327000FFE007FF0000000007FF07000000180044
:10328000FFC007FF000000001807FF000000180043
:10329000000007FF000000001807FF0000001800F2
:1032A000000007FF000000001F003F0000000000BA
:1032B000000001FF000000001F003F000000E000D0
:1032C000000000FF000000001F001F000000E000E1
:1032D000000000FF0000000000FFC7000000E00346
:1032E0000000C0FF0000000000FFC7000000E00376
:1032F0000000E0FF0000000000FFE7000000E00722
:103300000000E0FF000000000001FF000000E01FDF
:1033100000C7E0FF000000000000FF000000E01F09
:1033200000E7E0FF000000000000FF000000E01ADE
:10333000004240FF00000000000007000040E000E5
:10334000000000FF00000000000007000000E00097
:10335000000000FF00000000000007000000E00780
:10336000070700FF00000000000007004000E00722
:10337000070700FF000000000000070000004007F2
:10338000070700FF0008000000003F0000001807CA
:10339000FFFF07FF0000000000003F0000001807CB
:1033A000FFFF07FF000000000000FF000000020315
:1033B000FFFE17FF000000000001FFC00000070033
:1033C00000003FFF000000000001FFC000000700F8
:1033D00000001FFF00000000000700FFFFFFFFFFCD
:1033E000FFFFFFFF00000000000700FFFFFFFFFFDF
:1033F000FFFFFFFF7FFF000007FF00FFFFFFFFFF52
:10340000FFFFFFFFFFFF000007FF07F81FFFFF0799
:10341000F81FFFFFFFFF000007FF07F81FFFFF0770
:10342000F81FFFFFFFFFFFFFFFFF07FC3FFFFF0746
:10343000FC3FFFFFFFFFFFFFFFFFFFFFFFFFFFFF5F
:10344000FFFFFFFFFFFFFFFFFFFFFFFFFFFFFFFF8C
:10345000FFFFFFFFFFFFFFFFFFFFFFFFFFFFFFFF7C
:10346000FFFFFFFFFFFFFFFFFFFFFFFFFFFFFFFF6C
:10347000FFFFFFFFFFFFFFFFFFFFFFFFFFFFFFFF5C
:10348000FFFFFFFFFFFFFFFFFFFFFFFFFFFFFFFF4C
:10349000FFFFFFFFFFFFFFFFFFFFFFFFFFFFFFFF3C
:1034A000FFFFFFFFFFFFFFFFFFFFFFFFFFFFFFFF2C
:1034B000FFFFFFFFFFFFFFFFFFFFFFFFFFFFFFFF1C
:1034C000FFFFFFFFFFFFFFFFFFFFFFFFFFFFFFFF0C
:1034D000FFFFFFFFFFFFFFFFFFFFFFFFFFFFFFFFFC
:1034E000FFFFFFFFFFFFFFFFFFFFFFFFFFFFFFFFEC
:1034F000FFFFFFFF7FFFFFFFFDFFFFBFFFFFFFFF9E
:10350000FFFFFFFF0000FFFFF800003FFFFFFFFF8E
:10351000FFFFFFFF7FFCFFFFFBFFEE3FFFFFFFFF13
:10352000FFFFFFFF7FFE000003FFFFC00000000061
:1035300000FFFFFF7FFE000003FFFFC00000000050
:1035400000FFFFFF7FFFFFFFFFFFF7C0000000004D
:1035500000FFFFFF7FFFFFFFFFFFF70000000000FD
:10356000001FFFFF7FFFFFFFFFFFF70000000000CD
:10357000001FFFFF0000FFFFF80007000000000031
:10358000001FFFFF00007FFFF800070000000000A1
:10359000001FFFFF00002000900007000000020055
:1035A000001FFFFF000000000000070000000000F7
:1035B000001FFFFF000000000000070000000000E7
:1035C000001FFFFF000000000000070000000000D7
:1035D000001FFFFF0000000000000700000003C004
:1035E000001FFFFF0000000000000700000007E0D0
:1035F000401FFFFF0000000000000700000003C0A4
:10360000001FFFFF0000000000000300000018186A
:10361000001F07FF00000000000003000000181852
:10362000001F07FF0000000000000300000018005A
:10363000001C07FF00000000000003000000180746
:10364000001807FF0000000000000300000018063B
:10365000001807FF0000000003FE03000000180030
:10366000FFE007FF0000000007FF03000000180054
:10367000FFE007FF0000000007FF07000000180040
:10368000FFC007FF000000001807FF00000018003F
:10369000000007FF000000001807FF0000001800EE
:1036A000000007FF000000001F003F0000000000B6
:1036B000000001FF000000001F003F000000E000CC
:1036C000000000FF000000001F001F000000E000DD
:1036D000000000FF0000000000FFC7000000E00342
:1036E0000000C0FF0000000000FFC7000000E00372
:1036F0000000E0FF0000000000FFE7000000E0071E
:103700000000E0FF000000000000FF000000E01FDC
:1037100000C7E0FF000000000000FF000000E01F05
:1037200000E7E0FF000000000000FF000000E01ADA
:10373000004240FF00000000000007000040E000E1
:10374000000000FF00000000000007000000E00093
:10375000000000FF00000000000007000000E0077C
:10376000070700FF00000000000007004000E0071E
:10377000070700FF000000000000070000004007EE
:10378000070700FF0008000000003F0000001807C6
:10379000FFFF07FF0000000000003F0000001807C7
:1037A000FFFF07FF000000000000FF000000020311
:1037B000FFFE1FFF000000000001FFC00000070027
:1037C00000001FFF000000000001FFC00000070014
:1037D00000001FFF00000000000F00FFFFFFFFFFC1
:1037E000FFFFFFFF00000000000700FFFFFFFFFFDB
:1037F000FFFFFFFF7FFF000007FF00FFFFFFFFFF4E
:10380000FFFFFFFFFFFF000007FF07F81FFFFF0795
:10381000F81FFFFFFFFF000007FF07F81FFFFF076C
:10382000F81FFFFFFFFFFFFFFFFF07FC3FFFFF0742
:10383000FC3FFFFFFFFFFFFFFFFFFFFFFFFFFFFF5B
:10384000FFFFFFFFFFFFFFFFFFFFFFFFFFFFFFFF88
:10385000FFFFFFFFFFFFFFFFFFFFFFFFFFFFFFFF78
:10386000FFFFFFFFFFFFFFFFFFFFFFFFFFFFFFFF68
:10387000FFFFFFFFFFFFFFFFFFFFFFFFFFFFFFFF58
:10388000FFFFFFFFFFFFFFFFFFFFFFFFFFFFFFFF48
:10389000FFFFFFFFFFFFFFFFFFFFFFFFFFFFFFFF38
:1038A000FFFFFFFFFFFFFFFFFFFFFFFFFFFFFFFF28
:1038B000FFFFFFFFFFFFFFFFFFFFFFFFFFFFFFFF18
:1038C000FFFFFFFFFFFFFFFFFFFFFFFFFFFFFFFF08
:1038D000FFFFFFFFFFFFFFFFFFFFFFFFFFFFFFFFF8
:1038E000FFFFFFFFFFFFFFFFFFFFFFFFFFFFFFFFE8
:1038F000FFFFFFFFFFFFFFFF7FFFFFFFFFFFFFFF58
:10390000FFFFFFFFFFF800001FFFFFFFFFFFFFFFAC
:10391000FFFFFFFFFFFFFFFF9FFFFFFFFFFFFFFF17
:10392000FFFFFFFF0003FFFFC00000C0000000001A
:1039300000FFFFFF0007FFFFC00000C00000000005
:1039400000FFFFFF7FFFFFFFFFFFF7C00000000049
:1039500000FFFFFF7FFFFFFFFFFFF70000000000F9
:10396000001FFFFF7FFFFFFFFFFFF70000000000C9
:10397000001FFFFF7FF800001FFFF700000000009E
:10398000001FFFFF7FF800001FFFF700000000008E
:10399000001FFFFF00000000000007000000000003
:1039A000001FFFFF000000000000070000000000F3
:1039B000001FFFFF000000000000070000000000E3
:1039C000001FFFFF000000000000070000000000D3
:1039D000001FFFFF0000000000000700000000784B
:1039E000001FFFFF0000000000000700000000F8BB
:1039F000401FFFFF0000000000000700000000F86B
:103A0000001FFFFF00000000000007000000030689
:103A1000001FE0FF00000000000007000000070793
:103A2000001FE0FF0000000000000300000007008E
:103A3000001F00FF0000000000000300000007005E
:103A4000E01F00FF0000000000000300000007006E
:103A5000C01F00FF0000000000000300000007007E
:103A60001FF800FF00000000000003000000070036
:103A70001FF800FF00000000000003000000070026
:103A80001FF800FF00000000000003000000070016
:103A9000000000FF0000000000000300000007001D
:103AA000000000FF00000000000007000000000010
:103AB0000000003F000000000000FF0000021800AE
:103AC0000000001F000000000000FF0000001800C0
:103AD0000000001F00000000001F07000000180089
:103AE000C000181F00000000001F070000001800A1
:103AF000E000181F00000000001F07000000180071
:103B0000E000181F0000000000E007000000180798
:103B1000E018F81F0000000000E007000000180790
:103B2000E018F81F0000000007C3E70000001802BB
:103B30004018181F000000000707FF000040180091
:103B40000000001F000000000707FF000000180031
:103B50000000001F0000000007070F000000180011
:103B6000E0C0E01F00000000070707000000180089
:103B7000E0E0E01F00000000070707000000080069
:103B8000E0E0E01F0000000000FC0700000007006C
:103B9000FFFFE0FF0000000000FC0700000007003E
:103BA000FFFFE0FF0000000001FC070000000040F4
:103BB0007FFFC1FF00000000000007C0000000E020
:103BC000000007FF0000000000000FC0000000E040
:103BD000000007FF000000000000381FFFFFFFFF8C
:103BE000FFFFFFFF000000000000383FFFFFFFFF66
:103BF000FFFFFFFF0007FFFFE000383FFFFFFFFF71
:103C0000FFFFFFFF0007FFFFE000381FE0FFFFF8A6
:103C10001FE0FFFF0007FFFFE000381FE0FFFFF895
:103C20001FC0FFFFFFFFFFFFFFFFFC3FE0FFFFF8AC
:103C30003FE0FFFFFFFFFFFFFFFFFFFFFFFFFFFF73
:103C4000FFFFFFFFFFFFFFFFFFFFFFFFFFFFFFFF84
:103C5000FFFFFFFFFFFFFFFFFFFFFFFFFFFFFFFF74
:103C6000FFFFFFFFFFFFFFFFFFFFFFFFFFFFFFFF64
:103C7000FFFFFFFFFFFFFFFFFFFFFFFFFFFFFFFF54
:103C8000FFFFFFFFFFFFFFFFFFFFFFFFFFFFFFFF44
:103C9000FFFFFFFFFFFFFFFFFFFFFFFFFFFFFFFF34
:103CA000FFFFFFFFFFFFFFFFFFFFFFFFFFFFFFFF24
:103CB000FFFFFFFFFFFFFFFFFFFFFFFFFFFFFFFF14
:103CC000FFFFFFFFFFFFFFFFFFFFFFFFFFFFFFFF04
:103CD000FFFFFFFFFFFFFFFFFFFFFFFFFFFFFFFFF4
:103CE000FFFFFFFFFFFFFFFFFFFFFFFFFFFFFFFFE4
:103CF000FFFFFFFFFFFFFFFFFFFFFFFFFFFFFFFFD4
:103D0000FFFFFFFFFFF800001FFFFFFFFFFFFFFFA8
:103D1000FFFFFFFFFFFFFFFF9FFFFFFFFFFFFFFF13
:103D2000FFFFFFFF0007FFFFC00001C00000000011
:103D300000FFFFFF0003FFFFC00000C00000000005
:103D400000FFFFFF7FFFFFFFFFFFF7C00000000045
:103D500000FFFFFF7FFFFFFFFFFFF70000000000F5
:103D6000001FFFFF7FFFFFFFFFFFF70000000000C5
:103D7000001FFFFF7FF800001FFFF700000000009A
:103D8000001FFFFF7FF800001FFFF700000000008A
:103D9000001FFFFF000000000000070000000000FF
:103DA000001FFFFF000000000000070000000000EF
:103DB000001FFFFF000000000000070000000000DF
:103DC000001FFFFF000000000000070000000000CF
:103DD000001FFFFF00000000000007000000005867
:103DE000001FFFFF0000000000000700000000F8B7
:103DF000401FFFFF0000000000000700000000F867
:103E0000001FFFFF00000000000007000000030685
:103E1000001FE0FF0000000000000700000007078F
:103E2000001FE0FF0000000000000300000007008A
:103E3000001F00FF0000000000000300000007005A
:103E4000E01F00FF0000000000000300000007006A
:103E5000C01F00FF0000000000000300000007007A
:103E60001FF800FF00000000000003000000070032
:103E70001FF800FF00000000000003000000070022
:103E80001FF800FF00000000000003000000070012
:103E9000000000FF00000000000003000000070019
:103EA000000000FF0000000000000700000000000C
:103EB0000000003F0000000000001F00000218008A
:103EC0000000001F0000000000003F00000018007C
:103ED0000000001F00000000001FFF00000018008D
:103EE000C000181F00000000001FFF0000001800A5
:103EF000E000181F00000000001FFF000000180075
:103F0000E000181F0000000007E00700000018078D
:103F1000E018F81F0000000007E007000000180785
:103F2000E018F81F0000000007C07700000018022A
:103F30004018581F000000000700FF000040180054
:103F40000000001F000000000700FF000000180034
:103F50000000001F0000000001FFEF00000018003B
:103F6000E0C0E01F0000000001FFE70000001800B3
:103F7000E0E0E01F0000000000FFC70000000800B4
:103F8000E0E0E01F00000000000007000000070064
:103F9000FFFFE0FF00000000000007000000070036
:103FA000FFFFE0FF0000000000000700000000C06D
:103FB0007FFFC1FF00000000000007C0000000E01C
:103FC000000007FF00000000000007C0000000E044
:103FD000000007FF000000000000071FFFFFFFFFB9
:103FE000FFFFFFFF000000000000073FFFFFFFFF93
:103FF000FFFFFFFF0003FFFFC000071FFFFFFFFFE2
:10400000FFFFFFFF0007FFFFE0000707F81FFFFFAC
:1040100007F83FFF0007FFFFE0000707F81FFFFF5B
:1040200007F81FFFFFFFFFFFFFFFFF07F83FFFFF3E
:1040300007FC3FFFFFFFFFFFFFFFFFFFFFFFFFFF4B
:10404000FFFFFFFFFFFFFFFFFFFFFFFFFFFFFFFF80
:10405000FFFFFFFFFFFFFFFFFFFFFFFFFFFFFFFF70
:10406000FFFFFFFFFFFFFFFFFFFFFFFFFFFFFFFF60
:10407000FFFFFFFFFFFFFFFFFFFFFFFFFFFFFFFF50
:10408000FFFFFFFFFFFFFFFFFFFFFFFFFFFFFFFF40
:10409000FFFFFFFFFFFFFFFFFFFFFFFFFFFFFFFF30
:1040A000FFFFFFFFFFFFFFFFFFFFFFFFFFFFFFFF20
:1040B000FFFFFFFFFFFFFFFFFFFFFFFFFFFFFFFF10
:1040C000FFFFFFFFFFFFFFFFFFFFFFFFFFFFFFFF00
:1040D000FFFFFFFFFFFFFFFFFFFFFFFFFFFFFFFFF0
:1040E000FFFFFFFFFFFFFFFFFFFFFFFFFFFFFFFFE0
:1040F000FFFFFFFF7FFFFFFFFDFFFFE0000000006D
:1041000000FFFFFF0000FFFFF80000C000000000FC
:1041100000FFFFFF7FFCFFFFFBFFF0C0000000007F
:1041200000FFFFFF7FFE000003FFF3000000000020
:10413000001FFFFF7FFE000003FFF70000000000EC
:10414000001FFFFF7FFFFFFFFFFFF70000000000E1
:10415000001FFFFF7FFFFFFFFFFFF70000000000D1
:10416000001FFFFF7FFFFFFFFFFFF70000020200BD
:10417000001FFFFF0000FFFFF80007000000000025
:10418000001FFFFF00007FFFF0000700000000009D
:10419000001FFFFF00000000F0000700000000000B
:1041A000001FFFFF00000000000007000000007873
:1041B000001FFFFF0000000000000700000000F8E3
:1041C000401FFFFF0000000000000700000000F893
:1041D000001FFFFF000000000000070000000202B7
:1041E000001FE0FF000000000000070000000707BC
:1041F000001FE0FF000000000000030000000707B0
:10420000001FC0FF000000000000030000000700C6
:10421000C01F00FF000000000000030000000700B6
:10422000E01F00FF00000000000003000000070086
:10423000003C00FF0000000000F803000000070041
:104240001FF800FF0000000000F803000000070056
:104250001FF800FF00000000030603000000070035
:10426000000000FF00000000070703000000070037
:10427000000000FF00000000070707000000030027
:10428000000000FF000000000707FF00000018000A
:104290000000001F000000000707FF0000001800DA
:1042A0000000001F0000000000C007000000180010
:1042B000C000181F0000000000E007020000180006
:1042C000E000181F0000000000E0070000001800D8
:1042D000E000181F00000000001F07000000180782
:1042E000E018F81F00000000001F0700000018077A
:1042F000E038FC1F00000000001F07000000180746
:10430000E018F81F000000000000FF000000180087
:104310000000001F000000000000FF000040180027
:104320000000001F000000000000FF000000180057
:10433000C040C01F0000000000000700000018007F
:10434000E0E0E01F0000000000000700000018008F
:10435000E0E0E01F00000000000007000000070090
:10436000FFFFE0FF00000000000007000000070062
:10437000FFFFE0FF00000000000007000000020057
:10438000FFFFC0FF00000000000007C0000000E0C9
:10439000000007FF00000000000007C0000000E070
:1043A000000007FF0000000000003FC0000000EC1C
:1043B000F25127FF000000000000381FFFFFFFFF41
:1043C000FFFFFFFF000000000000381FFFFFFFFF9E
:1043D000FFFFFFFF000000000000383FE0FFFFF894
:1043E0001FE0FFFF400000000000381FE0FFFFF863
:1043F0001FC0FFFF1FFF000007FFBC3FE0FFFFF8EB
:104400003FE0FFFF1FFF000007FFFFFFFFFFFFFF71
:10441000FFFFFFFF1FFF000007FFFFFFFFFFFFFF82
:10442000FFFFFFFF1FFFFFFFFFFFFFFFFFFFFFFF7C
:10443000FFFFFFFFFFFFFFFFFFFFFFFFFFFFFFFF8C
:10444000FFFFFFFFFFFFFFFFFFFFFFFFFFFFFFFF7C
:10445000FFFFFFFFFFFFFFFFFFFFFFFFFFFFFFFF6C
:10446000FFFFFFFFFFFFFFFFFFFFFFFFFFFFFFFF5C
:10447000FFFFFFFFFFFFFFFFFFFFFFFFFFFFFFFF4C
:10448000FFFFFFFFFFFFFFFFFFFFFFFFFFFFFFFF3C
:10449000FFFFFFFFFFFFFFFFFFFFFFFFFFFFFFFF2C
:1044A000FFFFFFFFFFFFFFFFFFFFFFFFFFFFFFFF1C
:1044B000FFFFFFFFFFFFFFFFFFFFFFFFFFFFFFFF0C
:1044C000FFFFFFFFFFFFFFFFFFFFFFFFFFFFFFFFFC
:1044D000FFFFFFFFFFFFFFFFFFFFFFFFFFFFFFFFEC
:1044E000FFFFFFFFFFFFFFFFFFFFFFFFFFFFFFFFDC
:1044F000FFFFFFFF7FFFFFFFFFFFFFE00000000067
:1045000000FFFFFF0000FFFFF80000C000000000F8
:1045100000FFFFFF7FFCFFFFFBF7F1C00000000082
:1045200000FFFFFF7FFE000003FFF300000000001C
:10453000001FFFFF7FFF000003FFF70000000000E7
:10454000001FFFFF7FFFFFFFFBFFF70000000000E1
:10455000001FFFFF7FFFFFFFFFFFF70000000000CD
:10456000001FFFFF7FFFFFFFFFFFF70000020200B9
:10457000001FFFFF0000FFFFF80007000000000021
:10458000001FFFFF00007FFFF00007000000000099
:10459000001FFFFF000000001000070000000000E7
:1045A000001FFFFF0000000000000700000000786F
:1045B000001FFFFF0000000000000700000000F8DF
:1045C000401FFFFF0000000000000700000000F88F
:1045D000001FFFFF000000000000070000000202B3
:1045E000001FE0FF000000000000070000000707B8
:1045F000001FE0FF000000000000070000000706A9
:10460000001FC0FF000000000000030000000700C2
:10461000C01F00FF000000000000030000000700B2
:10462000E01F00FF00000000000003000000070082
:10463000003C00FF0000000000F80300000007003D
:104640001FF800FF0000000000F803000000070052
:104650001FF800FF00000000030603000000070031
:10466000000000FF00000000070703000000070033
:10467000000000FF00000000070707000000030023
:10468000000000FF000000000707FF000000180006
:104690000000001F000000000707FF0000001800D6
:1046A0000000001F0000000000C00700000018000C
:1046B000C000181F0000000000E007020000180002
:1046C000E000181F0000000000E0070000001800D4
:1046D000E000181F00000000001F0700000018077E
:1046E000E018F81F00000000001F07000000180776
:1046F000E038F81F00000000001F07000000180746
:10470000E018F81F000000000000FF000000180083
:104710000000001F000000000000FF000040180023
:104720000000001F000000000000FF000000180053
:104730004040401F0000000000000700000018007B
:10474000E0C0E01F000000000000070000001800AB
:10475000E0E0E01F0000000000000700000007008C
:10476000FFFFE0FF0000000000000700000007005E
:10477000FFFFE0FF00000000000007000000020053
:10478000FFFFC0FF00100000000007C0000000E0B5
:10479000000007FF00000000000007C0000000E06C
:1047A000000007FF0000000000003FC0000000E51F
:1047B0007F35B7FF000000000000381FFFFFFFFF3C
:1047C000FFFFFFFF000000000000381FFFFFFFFF9A
:1047D000FFFFFFFF000000000000381FE0FFFFF8B0
:1047E0001FE0FFFF400000000000381FE0FFFFF85F
:1047F0001FC0FFFF1FFF000007FFFC3FE0FFFFF8A7
:104800003FE0FFFF1FFF000007FFFFFFFFFFFFFF6D
:10481000FFFFFFFF1FFF000007FFFFFFFFFFFFFF7E
:10482000FFFFFFFF1FFFFFFFFFFFFFFFFFFFFFFF78
:10483000FFFFFFFFFFFFFFFFFFFFFFFFFFFFFFFF88
:10484000FFFFFFFFFFFFFFFFFFFFFFFFFFFFFFFF78
:10485000FFFFFFFFFFFFFFFFFFFFFFFFFFFFFFFF68
:10486000FFFFFFFFFFFFFFFFFFFFFFFFFFFFFFFF58
:10487000FFFFFFFFFFFFFFFFFFFFFFFFFFFFFFFF48
:10488000FFFFFFFFFFFFFFFFFFFFFFFFFFFFFFFF38
:10489000FFFFFFFFFFFFFFFFFFFFFFFFFFFFFFFF28
:1048A000FFFFFFFFFFFFFFFFFFFFFFFFFFFFFFFF18
:1048B000FFFFFFFFFFFFFFFFFFFFFFFFFFFFFFFF08
:1048C000FFFFFFFFFFFFFFFFFFFFFFFFFFFFFFFFF8
:1048D000FFFFFFFFFFFFFFFFFFFFFFFFFFFFFFFFE8
:1048E000FFFFFFFFFFFFFFFFFFFFFFFFFFFFFFFFD8
:1048F000FFFFFFFF7FFFFFFFFFFFFFE00000000063
:1049000000FFFFFF0000FFFFF80000C000000000F4
:1049100000FFFFFF7FFCFFFFFBFFF1C00000000076
:1049200000FFFFFF7FFE000003FFF3000000000018
:10493000001FFFFF7FFE000003FFF70000000000E4
:10494000001FFFFF7FFFFFFFFFFFF70000000000D9
:10495000001FFFFF7FFFFFFFFFFFF70000000000C9
:10496000001FFFFF7FFFFFFFFFFFF70000020200B5
:10497000001FFFFF0000FFFFF8000700000000001D
:10498000001FFFFF00007FFFF00007000000000095
:10499000001FFFFF000000003000070000000000C3
:1049A000001FFFFF0000000000000700000003C020
:1049B000001FFFFF0000000000000700000007C00C
:1049C000401FFFFF0000000000000700000003C0C0
:1049D000001FFFFF00000000000007000000181883
:1049E000001F07FF0000000000000700000018186B
:1049F000001F07FF0000000000000700000018185B
:104A0000001F07FF0000000007FE0300000018065B
:104A1000001807FF0000000007FF03000000180750
:104A2000001807FF000000000787030000001800BF
:104A3000000007FF000000000707C3000000180087
:104A4000FFE007FF000000000707C7000000180094
:104A5000FFC007FF0000000007E0FF000000180093
:104A6000000007FF0000000007E0FF000000180042
:104A7000000007FF0000000003E0FF000000180036
:104A8000000003FF0000000000F83F000000E0000D
:104A9000000000FF0000000000F83F000000E00000
:104AA000000000FF00000000001E07000000E00200
:104AB000000040FF00000000001F07020000E003AC
:104AC0000000E0FF00000000001F07000000E003FE
:104AD0000000E0FF000000000007FF000000E01FF2
:104AE00000C7E0FF000000000007FF000000E01F1B
:104AF00000E7E0FF000000000003FF000000E01FEF
:104B000000C3C0FF0000000000003F000000E00004
:104B1000000000FF0000000000003F000040E00037
:104B2000000000FF0000000000001F000000E00285
:104B3000020200FF00000000000007000000E00784
:104B4000070700FF000000000000070000006007EA
:104B5000070700FF00000000000007000000180722
:104B6000FFFF03FF0000000000000700000018071F
:104B7000FFFF07FF000000000000370000001807DB
:104B8000FFFF07FF0002000000003FC00000070019
:104B900000003FFF0002000000003FC000000700CF
:104BA00000003FFF000000000001FFC000000723DD
:104BB000F6DFBFFF000000000001C03FFFFFFFFF66
:104BC000FFFFFFFF000040000001C03FFFFFFFFFAD
:104BD000FFFFFFFF000000000001C0FFE0FFFFE05B
:104BE000FF07FFFF00C000C00001C0FFE0FFFFE0C3
:104BF000FF07FFFF7F1F000007FDE0FFE0FFFFE171
:104C0000FF07FFFFFE1F800007FFFFFFFFFFFFFF03
:104C1000FFFFFFFFFE1F000007FFFFFFFFFFFFFF7B
:104C2000FFFFFFFFFF1FFF1FFFFFFFFFFFFFFFFF54
:104C3000FFFFFFFFFFFFFFFFFFFFFFFFFFFFFFFF84
:104C4000FFFFFFFFFFFFFFFFFFFFFFFFFFFFFFFF74
:104C5000FFFFFFFFFFFFFFFFFFFFFFFFFFFFFFFF64
:104C6000FFFFFFFFFFFFFFFFFFFFFFFFFFFFFFFF54
:104C7000FFFFFFFFFFFF3FFFFFFFFFFFFFFFFFFF04
:104C8000FFFFFFFFFFFF1FFFFFFFFFFFFFFFFFFF14
:104C9000FFFFFFFFFFFFFFFFFFFFFFFFFFFFFFFF24
:104CA000FFFFFFFFFFFFFFFFFFFFFFFFFFFFFFFF14
:104CB000FFFFFFFFFFFFFFFFFFFFFFFFFFFFFFFF04
:104CC000FFFFFFFFFFFFFFFFFFFFFFFFFFFFFFFFF4
:104CD000FFFFFFFFFFFFFFFFFFFFFFFFFFFFFFFFE4
:104CE000FFFFFFFFFFFFFFFFFFFFFFFFFFFFFFFFD4
:104CF000FFFFFFFF7FFFFFFFFFFFFFE0000000005F
:104D000000FFFFFF0000FFFFF80000C000000000F0
:104D100000FFFFFF7FFCFFFFF9FFE8C0000000007D
:104D200000FFFFFF7FFE000003FFE3000000000024
:104D3000001FFFFF7FFE000001FFF70000000000E2
:104D4000001FFFFF7FFFFFFFFFFFF70000000000D5
:104D5000001FFFFF7FFFFFFFFFFFF70000000000C5
:104D6000001FFFFF7FFFFFFFFFFFF70000020200B1
:104D7000001FFFFF0000FFFFF80007000000000019
:104D8000001FFFFF00007FFFF00007000000000091
:104D9000001FFFFF000020001000070000000000BF
:104DA000001FFFFF0000000000000700000003C01C
:104DB000001FFFFF0000000000000700000007E0E8
:104DC000401FFFFF0000000000000700000003C0BC
:104DD000001FFFFF0000000000000700000018187F
:104DE000001F07FF00000000000007000000181867
:104DF000001F07FF00000000000007000000181857
:104E0000001F07FF0000000007FE03000000180657
:104E1000001807FF0000000007FF0300000018074C
:104E2000001807FF000000000787030000001800BB
:104E3000000007FF000000000707C3000000180083
:104E4000FFE007FF000000000707C7000000180090
:104E5000FFC007FF0000000007E0FF00000018008F
:104E6000000007FF0000000007E0FF00000018003E
:104E7000000007FF0000000003E0FF000000180032
:104E8000000003FF0000000000F83F000000E00009
:104E9000000000FF0000000000F83F000000E000FC
:104EA000000000FF00000000001E07000000E002FC
:104EB000000040FF00000000001F07020000E003A8
:104EC0000000E0FF00000000001F07000000E003FA
:104ED0000000E0FF000000000007FF000000E01FEE
:104EE00000C3E0FF000000000007FF000000E01F1B
:104EF00000E7E0FF000000000007FF000000E01FE7
:104F000000C3C0FF0000000000003F000000E00000
:104F1000000000FF0000000000003F000040E00033
:104F2000000000FF0000000000001F000000E00281
:104F3000020200FF00000000000007000000E00780
:104F4000070700FF000000000000070000006007E6
:104F5000070700FF0000000000000700000018071E
:104F6000FFFF03FF0000000000000700000018071B
:104F7000FFFF07FF000000000000170000001807F7
:104F8000FFFF07FF0002000000003FC00000070015
:104F900000003FFF0002000000003FC000000700CB
:104FA00000003FFF000000000000FFC0000007B746
:104FB000B7FE3FFF000000000001C01FFFFFFFFF22
:104FC000FFFFFFFF000000000001C01FFFFFFFFF09
:104FD000FFFFFFFF000000000001C0FFE0FFFFE057
:104FE000FF07FFFF00C000C00001C0FFE0FFFFE0BF
:104FF000FF07FFFF7F1F000007FDE0FFE0FFFFE16D
:10500000FF07FFFFFE1F020007FFFFFFFFFFFFFF7D
:10501000FFFFFFFFFE1F000007FFFFFFFFFFFFFF77
:10502000FFFFFFFFFF1FFF1FFFFFFFFFFFFFFFFF50
:10503000FFFFFFFFFFFFFFFFFFFFFFFFFFFFFFFF80
:10504000FFFFFFFFFFFFFFFFFFFFFFFFFFFFFFFF70
:10505000FFFFFFFFFFFFFFFFFFFFFFFFFFFFFFFF60
:10506000FFFFFFFFFFFFFFFFFFFFFFFFFFFFFFFF50
:10507000FFFFFFFFFFFF3FFFFFFFFFFFFFFFFFFF00
:10508000FFFFFFFFFFFF1FFFFFFFFFFFFFFFFFFF10
:10509000FFFFFFFFFFFFFFFFFFFFFFFFFFFFFFFF20
:1050A000FFFFFFFFFFFFFFFFFFFFFFFFFFFFFFFF10
:1050B000FFFFFFFFFFFFFFFFFFFFFFFFFFFFFFFF00
:1050C000FFFFFFFFFFFFFFFFFFFFFFFFFFFFFFFFF0
:1050D000FFFFFFFFFFFFFFFFFFFFFFFFFFFFFFFFE0
:1050E000FFFFFFFFFFFFFFFFFFFFFFFFFFFFFFFFD0
:1050F000FFFFFFFFFFFFFFFFFFFFFFFFFFFFFFFFC0
:10510000FFFFFFFFFFF800001FFFFFFFFFFFFFFF94
:10511000FFFFFFFFFFFFFFFF9FFFFFFFFFFFFFFFFF
:10512000FFFFFFFF0007FFFFC00001C000000000FD
:1051300000FFFFFF0007FFFFE00000C000000000CD
:1051400000FFFFFF7FFFFFFFFFFFF7C00000000031
:1051500000FFFFFF7FFFFFFFFFFFF70000000000E1
:10516000001FFFFF7FFFFFFFFFFFF70000000000B1
:10517000001FFFFF7FF800001FFFF7000000000086
:10518000001FFFFF7FF800001FFFF7000000000076
:10519000001FFFFF000800000000070000000000E3
:1051A000001FFFFF0000000000000700000003C018
:1051B000001FFFFF0000000000000700000007C004
:1051C000001FFFFF0000000000000700000007C0F4
:1051D000001FFFFF0000000000000700000018187B
:1051E000001F07FF00000000000007000000181863
:1051F000401F07FF00000000000007000000181813
:10520000001F07FF00000000000007000000180654
:10521000001807FF0000000000000700000018074A
:10522000001807FF0000000000F80300000018004D
:10523000000007FF0000000000F803000000180055
:10524000FFE007FF0000000000F803000000180066
:10525000FFC007FF00000000030603000000180065
:10526000000007FF0000000007070300000018000F
:10527000000007FF000000000707070000001800FB
:10528000000003FF000000000707FF000000E0002F
:10529000000000FF000000000707FF000000E00022
:1052A000000000FF0000000000C00F000000E0024E
:1052B000000040FF0000000000E007000001E003E4
:1052C0000000E0FF0000000000E007000000E00335
:1052D0000000E0FF00000000001F07000000E01FCA
:1052E00000C7E0FF00000000001F07020000E01FF1
:1052F00000E7E0FF00000000001F07000000E01FC3
:1053000000C3C0FF000000000000FF000000E0003C
:10531000000000FF000000000000FF000000E000AF
:10532000000000FF000000000000EF000000E002AD
:10533000020200FF00000000000007000000E0077C
:10534000070700FF000000000000070000006007E2
:10535000070700FF0000000000000700000018071A
:10536000FFFF03FF000000000000070040001807D7
:10537000FFFF07FF00000000000007000000180307
:10538000FFFF07FF0000000000003F0000000700D3
:1053900000003FFF0000000000003F000000070089
:1053A00000003FFF000000000000FF000000007F41
:1053B000FDFB3FFF000000004010C7C0000000FFE1
:1053C000FFFFFFFF000000004200C7C0000000FF19
:1053D000FFFFFFFF00000000000600FFFFFFFFFFD0
:1053E000FF3FFFFF00000000F80F00FFFFFFFFFF7F
:1053F000FF1FFFFF0007FFFE000F00FFFFFFFFFF83
:10540000FF1FFFFF0007FFFE000F07F81FFFFF074A
:10541000F81FFFFF0007FFFE000707F81FFFFF0749
:10542000F81FFFFFFFFFFFFF1FFF07FC3FFFFF0706
:10543000FC3FFFFFFFFFFFFFFFFFFFFFFFFFFFFF3F
:10544000FFFFFFFFFFFFFFFFFFFFFFFFFFFFFFFF6C
:10545000FFFFFFFFFFFFFFFFC7F8FFFFFFFFFFFF9B
:10546000FFFFFFFFFFFFFFFFC3F8FFFFFFFFFFFF8F
:10547000FFFFFFFFFFFFFFFFC738FFFFFFFFFFFF3B
:10548000FFFFFFFFFFFFFFFFFE1FFFFFFFFFFFFF0D
:10549000FFFFFFFFFFFFFFFFFFFFFFFFFFFFFFFF1C
:1054A000FFFFFFFFFFFFFFFFFFFFFFFFFFFFFFFF0C
:1054B000FFFFFFFFFFFFFFFFFFFFFFFFFFFFFFFFFC
:1054C000FFFFFFFFFFFFFFFFFFFFFFFFFFFFFFFFEC
:1054D000FFFFFFFFFFFF1FFFFFFFFFFFFFFFFFFFBC
:1054E000FFFFFFFFFFFF1FFFFFFFFFFFFFFFFFFFAC
:1054F000FFFFFFFFFFFE1FFF7FFFFFFFFFFFFFFF1D
:10550000FFFFFFFFFFF840001FFFFFFFFFFFFFFF50
:10551000FFFFFFFFFFFDFFFF9FFFFFFFFFFFFFFFFD
:10552000FFFFFFFF0007FFFFC00001C000000000F9
:1055300000FFFFFF0007FFFFE00000C000000000C9
:1055400000FFFFFF7FFFFFFFFFFFF7C0000000002D
:1055500000FFFFFF7FFFFFFFFFFFF70000000000DD
:10556000001FFFFF7FFFFFFFFFFFF70000000000AD
:10557000001FFFFF7FF800001FFFF7000000000082
:10558000001FFFFF7FF800001FFFF7000000000072
:10559000001FFFFF000800000000070000000000DF
:1055A000001FFFFF000000000000070000000000D7
:1055B000001FFFFF000000000000070000000000C7
:1055C000001FFFFF000000000000070000000000B7
:1055D000001FFFFF0000000000000700000003C0E4
:1055E000001FFFFF0000000000000700000007E0B0
:1055F000401FFFFF0000000000000700000003C084
:10560000001FFFFF00000000000007000000181846
:10561000001F07FF0000000000000700000018182E
:10562000001F07FF0000000000000300000018003A
:10563000001C07FF00000000000003000000180726
:10564000001807FF0000000000000300000018061B
:10565000001807FF0000000003FE03000000180010
:10566000FFE007FF0000000007FF03000000180034
:10567000FFE007FF0000000007FF07000000180020
:10568000FFC007FF000000001807FF00000018001F
:10569000000007FF000000001807FF0000001800CE
:1056A000000007FF000000001F003F000000000096
:1056B000000001FF000000001F003F000000E000AC
:1056C000000000FF000000001F001F000000E000BD
:1056D000000000FF0000000000FFC7000000E00322
:1056E0000000C0FF0000000000FFC7000000E00352
:1056F0000000E0FF0000000000FFE7000000E007FE
:105700000000E0FF000000000000FF000000E01FBC
:1057100000C7E0FF000000000000FF000000E01FE5
:1057200000E7E0FF0000000000007F000000E01242
:10573000004040FF00000000000007000000E00003
:10574000000000FF00000000000007000000E00073
:10575000000000FF00000000000007000000E0075C
:10576000070700FF00000000000007004000E007FE
:10577000070700FF000000000000070000004007CE
:10578000070700FF0000000000003F0000001807AE
:10579000FFFF07FF0000000000003F0000001807A7
:1057A000FFFF07FF000000000000FF0000000203F1
:1057B000FFFE1FFF000000000001FFC00000070007
:1057C00000003FFF000000000001FFC000000700D4
:1057D00000001FFF00000000000700FFFFFFFFFFA9
:1057E000FFFFFFFF00000000000F00FFFFFFFFFFB3
:1057F000FFFFFFFF0007FFFFC00F003FFC3FFFFF61
:10580000FFFFFFFF0007FFFFE00F0718181FFF074C
:10581000F81FFFFF0007FFFFE0070718181FFF072B
:10582000F81FFFFFFFFFFFFFFFFF071C381FFF07E9
:10583000FC3FFFFFFFFFFFFFFFFFFFFFFFFFFFFF3B
:10584000FFFFFFFFFFFFFFFFFFFFFFFFFFFFFFFF68
:10585000FFFFFFFFFFFFFFFFFFFFFFFF1FFFFFFF38
:10586000FFFFFFFFFFFFFFFFFFFFFFFE1FFFFFFF29
:10587000FFFFFFFFFFFFFFFFFFFFFFFF1FFFFFFF18
:10588000FFFFFFFFFFFFFFFFFFFFFFFF1FFFFFFF08
:10589000FFFFFFFF00000000010203040000000002
:1058A000000000000102030406070809070A0000BF
:1058B000B45E00080000000006080000C45800089C
:1058C00000000000000000000000000000000000D8
:1058D0000000000000200020002000200020000028
:1058E00000200000005000500050000000000000A8
:1058F000000000000050005000F8005000F8005078
:10590000005000000020007800A00070002800F087
:105910000020000000C000C80010002000400098D7
:1059200000180000004000A000A0004000A8009067
:10593000006800000030003000200040000000003F
:105940000000000000100020004000400040002047
:105950000010000000400020001000100010002087
:1059600000400000002000A8007000F8007000A8AF
:105970000020000000000020002000F8002000208F
:1059800000000000000000000000000000300030B7
:105990000020000000000000000000F800000000EF
:1059A00000000000000000000000000000000030C7
:1059B00000300000000000080010002000400080BF
:1059C0000000000000700088009800A800C800884F
:1059D0000070000000200060002000200020002057
:1059E00000700000007000880008007000800080D7
:1059F00000F8000000F800080010003000080088DF
:105A000000700000001000300050009000F80010FE
:105A10000010000000F8008000F000080008008876
:105A20000070000000380040008000F0008800880E
:105A30000070000000F8000800080010002000407E
:105A400000800000007000880088007000880088D6
:105A500000700000007000880088007800080010C6
:105A600000E0000000000000002000000020000016
:105A700000000000000000000020000000200020C6
:105A8000004000000008001000200040002000102E
:105A9000000800000000000000F8000000F800000E
:105AA000000000000040002000100008001000204E
:105AB0000040000000700088000800300020000056
:105AC000002000000070008800A800B800B000802E
